{
  "contractName": "ToDo",
  "abi": [
    {
      "inputs": [
        {
          "internalType": "string",
          "name": "_task",
          "type": "string"
        }
      ],
      "name": "createTask",
      "outputs": [
        {
          "internalType": "bool",
          "name": "",
          "type": "bool"
        }
      ],
      "stateMutability": "nonpayable",
      "type": "function"
    },
    {
      "inputs": [],
      "name": "getTasks",
      "outputs": [
        {
          "components": [
            {
              "internalType": "string",
              "name": "task",
              "type": "string"
            },
            {
              "internalType": "bool",
              "name": "isDone",
              "type": "bool"
            }
          ],
          "internalType": "struct ToDo.Task[]",
          "name": "",
          "type": "tuple[]"
        }
      ],
      "stateMutability": "view",
      "type": "function",
      "constant": true
    },
    {
      "inputs": [
        {
          "internalType": "uint256",
          "name": "_taskIndex",
          "type": "uint256"
        }
      ],
      "name": "getTask",
      "outputs": [
        {
          "components": [
            {
              "internalType": "string",
              "name": "task",
              "type": "string"
            },
            {
              "internalType": "bool",
              "name": "isDone",
              "type": "bool"
            }
          ],
          "internalType": "struct ToDo.Task",
          "name": "",
          "type": "tuple"
        }
      ],
      "stateMutability": "view",
      "type": "function",
      "constant": true
    },
    {
      "inputs": [
        {
          "internalType": "uint256",
          "name": "_taskIndex",
          "type": "uint256"
        },
        {
          "internalType": "bool",
          "name": "status",
          "type": "bool"
        }
      ],
      "name": "updateTask",
      "outputs": [
        {
          "internalType": "bool",
          "name": "",
          "type": "bool"
        }
      ],
      "stateMutability": "nonpayable",
      "type": "function"
    },
    {
      "inputs": [],
      "name": "getTaskCount",
      "outputs": [
        {
          "internalType": "uint256",
          "name": "",
          "type": "uint256"
        }
      ],
      "stateMutability": "view",
      "type": "function",
      "constant": true
    }
  ],
  "bytecode": "0x608060405234801561001057600080fd5b50610b09806100206000396000f3fe608060405234801561001057600080fd5b50600436106100575760003560e01c806304a87e381461005c578063111002aa1461007a5780631d65e77e146100aa5780635e1bf4a1146100da578063c17a340e1461010a575b600080fd5b610064610128565b60405161007191906107e3565b60405180910390f35b610094600480360381019061008f9190610874565b610270565b6040516100a191906108d0565b60405180910390f35b6100c460048036038101906100bf9190610921565b61037e565b6040516100d1919061098b565b60405180910390f35b6100f460048036038101906100ef91906109d9565b6104a3565b60405161010191906108d0565b60405180910390f35b610112610528565b60405161011f9190610a28565b60405180910390f35b60606000803373ffffffffffffffffffffffffffffffffffffffff1673ffffffffffffffffffffffffffffffffffffffff168152602001908152602001600020805480602002602001604051908101604052809291908181526020016000905b8282101561026757838290600052602060002090600202016040518060400160405290816000820180546101bb90610a72565b80601f01602080910402602001604051908101604052809291908181526020018280546101e790610a72565b80156102345780601f1061020957610100808354040283529160200191610234565b820191906000526020600020905b81548152906001019060200180831161021757829003601f168201915b505050505081526020016001820160009054906101000a900460ff16151515158152505081526020019060010190610188565b50505050905090565b60008060003373ffffffffffffffffffffffffffffffffffffffff1673ffffffffffffffffffffffffffffffffffffffff168152602001908152602001600020604051806040016040528085858080601f016020809104026020016040519081016040528093929190818152602001838380828437600081840152601f19601f8201169050808301925050505050505081526020016000151581525090806001815401808255809150506001900390600052602060002090600202016000909190919091506000820151816000019080519060200190610351929190610571565b5060208201518160010160006101000a81548160ff02191690831515021790555050506001905092915050565b6103866105f7565b6000803373ffffffffffffffffffffffffffffffffffffffff1673ffffffffffffffffffffffffffffffffffffffff16815260200190815260200160002082815481106103d6576103d5610aa4565b5b90600052602060002090600202016040518060400160405290816000820180546103ff90610a72565b80601f016020809104026020016040519081016040528092919081815260200182805461042b90610a72565b80156104785780601f1061044d57610100808354040283529160200191610478565b820191906000526020600020905b81548152906001019060200180831161045b57829003601f168201915b505050505081526020016001820160009054906101000a900460ff1615151515815250509050919050565b6000816000803373ffffffffffffffffffffffffffffffffffffffff1673ffffffffffffffffffffffffffffffffffffffff16815260200190815260200160002084815481106104f6576104f5610aa4565b5b906000526020600020906002020160010160006101000a81548160ff0219169083151502179055506001905092915050565b60008060003373ffffffffffffffffffffffffffffffffffffffff1673ffffffffffffffffffffffffffffffffffffffff16815260200190815260200160002080549050905090565b82805461057d90610a72565b90600052602060002090601f01602090048101928261059f57600085556105e6565b82601f106105b857805160ff19168380011785556105e6565b828001600101855582156105e6579182015b828111156105e55782518255916020019190600101906105ca565b5b5090506105f39190610613565b5090565b6040518060400160405280606081526020016000151581525090565b5b8082111561062c576000816000905550600101610614565b5090565b600081519050919050565b600082825260208201905092915050565b6000819050602082019050919050565b600081519050919050565b600082825260208201905092915050565b60005b8381101561069657808201518184015260208101905061067b565b838111156106a5576000848401525b50505050565b6000601f19601f8301169050919050565b60006106c78261065c565b6106d18185610667565b93506106e1818560208601610678565b6106ea816106ab565b840191505092915050565b60008115159050919050565b61070a816106f5565b82525050565b6000604083016000830151848203600086015261072d82826106bc565b91505060208301516107426020860182610701565b508091505092915050565b60006107598383610710565b905092915050565b6000602082019050919050565b600061077982610630565b610783818561063b565b9350836020820285016107958561064c565b8060005b858110156107d157848403895281516107b2858261074d565b94506107bd83610761565b925060208a01995050600181019050610799565b50829750879550505050505092915050565b600060208201905081810360008301526107fd818461076e565b905092915050565b600080fd5b600080fd5b600080fd5b600080fd5b600080fd5b60008083601f8401126108345761083361080f565b5b8235905067ffffffffffffffff81111561085157610850610814565b5b60208301915083600182028301111561086d5761086c610819565b5b9250929050565b6000806020838503121561088b5761088a610805565b5b600083013567ffffffffffffffff8111156108a9576108a861080a565b5b6108b58582860161081e565b92509250509250929050565b6108ca816106f5565b82525050565b60006020820190506108e560008301846108c1565b92915050565b6000819050919050565b6108fe816108eb565b811461090957600080fd5b50565b60008135905061091b816108f5565b92915050565b60006020828403121561093757610936610805565b5b60006109458482850161090c565b91505092915050565b6000604083016000830151848203600086015261096b82826106bc565b91505060208301516109806020860182610701565b508091505092915050565b600060208201905081810360008301526109a5818461094e565b905092915050565b6109b6816106f5565b81146109c157600080fd5b50565b6000813590506109d3816109ad565b92915050565b600080604083850312156109f0576109ef610805565b5b60006109fe8582860161090c565b9250506020610a0f858286016109c4565b9150509250929050565b610a22816108eb565b82525050565b6000602082019050610a3d6000830184610a19565b92915050565b7f4e487b7100000000000000000000000000000000000000000000000000000000600052602260045260246000fd5b60006002820490506001821680610a8a57607f821691505b60208210811415610a9e57610a9d610a43565b5b50919050565b7f4e487b7100000000000000000000000000000000000000000000000000000000600052603260045260246000fdfea264697066735822122035db288b0c52a97357fd358cb51dbf302c2e25a715c8cf8960b3ab2ff6d5523e64736f6c634300080a0033",
  "immutableReferences": {},
  "source": "pragma solidity ^0.8.0;\n\ncontract ToDo {\n    struct Task {\n        string task;\n        bool isDone;\n    }\n\n    mapping(address => Task[]) private tasks;\n\n    function createTask(string calldata _task) external returns (bool) {\n        tasks[msg.sender].push(Task({task: _task, isDone: false}));\n        return true;\n    }\n\n    function getTasks() external view returns (Task[] memory) {\n        return tasks[msg.sender];\n    }\n\n    function getTask(uint256 _taskIndex) external view returns (Task memory) {\n        // Task storage task = tasks[msg.sender][_taskIndex];\n        // return task;\n        return tasks[msg.sender][_taskIndex];\n    }\n\n    function updateTask(uint256 _taskIndex, bool status)\n        external\n        returns (bool)\n    {\n        tasks[msg.sender][_taskIndex].isDone = status;\n        return true;\n    }\n\n    function getTaskCount() public view returns (uint256) {\n        return tasks[msg.sender].length;\n    }\n}\n",
  "sourcePath": "/Users/bibhashsingh/Documents/BC_IMP/todoApp/my-app/contracts/Todo.sol",
  "compiler": {
    "name": "solc",
    "version": "0.8.10+commit.fc410830.Emscripten.clang"
  },
  "schemaVersion": "3.4.3",
  "updatedAt": "2021-11-25T15:26:52.030Z",
  "networkType": "ethereum",
  "devdoc": {
    "kind": "dev",
    "methods": {},
    "version": 1
  },
  "userdoc": {
    "kind": "user",
    "methods": {},
    "version": 1
  }
}